:020000040800F2
:1000000028080020316F0008E5050008E705000812
:10001000EB050008EF050008F305000800000000EC
:10002000000000000000000000000000F7050008CC
:10003000F905000800000000FB050008FD050008A8
:100040004B6F00084B6F00084B6F00084B6F0008A8
:100050004B6F00084B6F00084B6F00084B6F000898
:100060004B6F00084B6F00084B6F00084B6F000888
:100070004B6F00084B6F00084B6F00084B6F000878
:100080004B6F00084B6F00084B6F00084B6F000868
:100090004B6F00084B6F00084B6F00084B6F000858
:1000A0004B6F00084B6F00084B6F00084B6F000848
:1000B0004B6F00084B6F00084B6F00084B6F000838
:1000C0004B6F00084B6F00084B6F00084B6F000828
:1000D0004B6F0008A76E00084B6F00084B6F0008BD
:1000E0004B6F00084B6F00084B6F00084B6F000808
:1000F0004B6F00084B6F00084B6F00084B6F0008F8
:100100004B6F00084B6F00084B6F00084B6F0008E7
:100110004B6F00084B6F00084B6F00084B6F0008D7
:100120004B6F00084B6F00084B6F00084B6F0008C7
:1001300000F002F800F03FF80AA090E8000C8244BA
:100140008344AAF10107DA4501D100F034F8AFF297
:10015000090EBAE80F0013F0010F18BFFB1A43F0A5
:1001600001031847CCB50000ECB50000103A24BFDD
:1001700078C878C1FAD8520724BF30C830C144BF0C
:1001800004680C607047000000230024002500264E
:10019000103A28BF78C1FBD8520728BF30C148BFEA
:1001A0000B607047782907F0B587002070471FB5AE
:1001B0001FBD10B510BD08F077F81146FFF7F7FF27
:1001C00000F008F808F095F803B4FFF7F2FF03BC5D
:1001D00006F00EFE08B506F0A1FD4FF4165006F02D
:1001E00016FE01F060FE06F069F906F0D7F9A023CB
:1001F000F0221946012005F0D5FC8C23DC2219469B
:10020000142005F0CFFC14231A468C21184605F063
:10021000C9FC4FF49673DC221946142005F0C2FC89
:10022000B42314224FF49671104605F0BBFC1DE078
:100230000521012006F09BF9C5490860052102202F
:1002400006F005FAC3490860102004230090C04856
:1002500028210268084605F0FAFD102004230090CA
:10026000BC4850210268282005F0F1FDE0E72DE9A7
:10027000FF5F0521012006F07AF9B54908600521E4
:10028000022006F0E4F9B3490860B349B3480068B6
:1002900009F0BAFBB2490860B249B048006809F0F9
:1002A0007FFB1AD2AD48006809F0CAF98046AE4A11
:1002B000AE4B08F0EBFE82460022AD4B08F0E4FFA7
:1002C000064632460B460020AA4908F071FC044657
:1002D00008F080FBA849086023E0A8499F4800680F
:1002E00009F05EFC1AD29D48006809F0A9F906469B
:1002F000A34AA44B08F0CAFE82460022A24B08F093
:100300009BFB804642460B4600209A4908F050FC71
:10031000044608F05FFB9849086002E09B48964954
:1003200008609B499448006809F03AFC02D298485A
:10033000914908609048006809F0FAFA84B28E4842
:10034000006809F0F5FA85B22146284606F0C9FC96
:100350008348006809F074F9044606F0E1FA7F4822
:10036000006809F06DF906468A4A8B4B08F064FB79
:10037000044608F02FFB79490860884977480068EF
:1003800009F00EFC03D24FF07E50744908607048AB
:10039000006840F6FF7190FBF1F040F6E44100FB8D
:1003A00001F4204609F0E4FA7D49086069480068D4
:1003B00040F6FF7190FBF1F040F6E44100FB01F4E0
:1003C000204609F0D5FA77490860084601680068B8
:1003D00009F01AFB834672480168006809F014FBB3
:1003E0005946019009F058F9824609F029F98046EA
:1003F00008F0CAFA064600224FF0804308F046FE95
:100400000022694BCDE9020108F0D2FB044608F056
:10041000E1FA664908600846006809F011F980466B
:1004200008F004F906460022614B08F02FFE04464E
:1004300008F0D0FA5F4908605948016859480068D7
:1004400009F098F9804609F0FBF8064607F0DEFF50
:10045000044608F0BFFA584908600846006809F0E9
:10046000EFF80646554A564B08F010FE044608F0D1
:10047000B1FA544908605449086800EBD07149103A
:10048000524A116050480068401C4F490860494872
:1004900001684F4809F0B8FA05464E4909F0B1FB2A
:1004A000044609F029FA4C490860464801684FF0B3
:1004B000804009F0A9FA0546484909F0A2FB044624
:1004C00009F01AFA46490860434A128891B23F4A35
:1004D000128890B200F07EFF414A128891B23B4AE6
:1004E000128890B200F076FF4FF6FF703749009007
:1004F00009881E318AB235490988491C88B28B2384
:10050000002105F0B1FA4FF6FF70304900900988DC
:100510001E318AB22D490988491C88B240F22B133A
:10052000A12105F0A1FA29480068D3280CDB32206C
:10053000254908604FF6FF7040F22B133322A121AA
:100540000090152005F090FA002004B0BDE8F09F5F
:100550003C0000204000002000247449700000206E
:100560006C0000200000C841CDCCCCCCCCCC0240EB
:1005700000B07040005E2A41740000200000E84195
:10058000A4703D0AD7A302400040624000B07E45FF
:1005900000F07F459A9999999999B93F00002042B6
:1005A000440000204800002080842E414C000020A0
:1005B000000034405000002054000020E79AD5612C
:1005C00094A94C40580000205C00002060000020EE
:1005D000000040400000A0416400002000004843AB
:1005E00068000020704700BFFEE700BFFEE700BFC5
:1005F000FEE700BFFEE77047704770477047000096
:100600000CB50020019000906C48006840F48030E8
:100610006A49086000BF6948006800F40030009033
:100620000198401C0190009818B90198B0F5A06F8E
:10063000F1D16248006800F4003010B10120009050
:1006400001E0002000900098012843D15C48006838
:1006500040F010005A4908600846006820F0030086
:1006600008600846006840F002000860534840688F
:10067000524948600846406848600846406840F46F
:10068000806048600846406820F47C104860084656
:10069000406840F4E81048600846006840F0807008
:1006A000086000BF4548006800F000700028F9D0DD
:1006B0004248406820F003004049486008464068CE
:1006C00040F00200486000BF3C48406800F00C0069
:1006D0000828F9D10CBD10B5FFF792FF10BD10B579
:1006E0003648006840F00100344908600846406818
:1006F000344908403149486008460068324908409A
:100700002E4908600846006820F4802008600846EA
:10071000406820F4FE0048604FF41F008860FFF737
:10072000DAFF4FF000602949086010BD10B50021C4
:1007300000200022214B5B6803F00C0121B1042949
:1007400006D0082928D107E0214B224C236027E05E
:100750001F4B204C236023E0184B5B6803F47010A0
:10076000164B5B6803F48032022303EB904022B9FE
:10077000194B4343174C23600DE0104B5B6803F4A7
:10078000003323B1144B4343124C236003E0104B5E
:100790004343104C236003E00D4B0E4C236000BF1D
:1007A00000BF064B5B68C3F303130C4CE15C094BC1
:1007B0001B68CB40074C236010BD000000100240B6
:1007C000002002400000FFF8FFFFF6FE08ED00E009
:1007D00000127A007800002000093D007C00002013
:1007E0004FF48071FD4A516149005161FC49086034
:1007F0008021516111618900116170474FF480714E
:10080000F64A116149005161F54908608021516142
:10081000116189001161704710B54FF08830F049BF
:100820000C390860091D08600020ED490860881532
:10083000EA4908614000486140204861E9488088F1
:1008400048F68911884202D1022006F080FAE44875
:10085000001F006884B24020E0490861C0000861C0
:100860004FF03330DE490C390860091D08604FF63F
:10087000FF70DB490860204610BD10B504460B46EA
:100880002046FFF7ADFF4FF48070D4490861400067
:100890004861D34803608020486108618000086196
:1008A00010BD10B504462046FFF79AFFFFF7B4FFCE
:1008B00010BD00B5CB490889FFF792FF00BD4FF48A
:1008C0008071C64A116149005161C54908608021A3
:1008D0005161116189001161704730B5014601F025
:1008E0001F04C1F34513CA0AE50205EB431515447D
:1008F000A8B230BD00BF011EA0F10102D0B2FAD1F2
:10090000704730B504460D46B648808849F24131FB
:10091000884205D0B348808845F21031884240D1E2
:10092000B0494889FFF75CFF4FF48070AB4908611C
:10093000400048612012AA4908608020A749486108
:100940000861800008614010086140004861E0B221
:10095000A34908608020A1494861086180000861BE
:10096000A0498889FFF73CFF4FF480709B490861DC
:100970004000486128129A490860802097494861E0
:100980000861800008614010086140004861E8B2D9
:10099000934908608020914948610861800008619E
:1009A0008CE19048808846F60401884249D18D4800
:1009B0008079012804D18B480088401E001B84B236
:1009C00088494889FFF70CFF4FF48070834908611C
:1009D0004000486120128249086080207F494861B8
:1009E0000861800008614010086140004861E0B281
:1009F0007B4908608020794948610861800008616E
:100A000078498889FFF7ECFE4FF4807073490861DC
:100A10004000486128127249086080206F4948618F
:100A20000861800008614010086140004861E8B238
:100A30006B4908608020694948610861800008614D
:100A40003CE16848808841F6631188427ED1654860
:100A5000807900283FD163480088401E001B84B283
:100A600060494889FFF7BCFE4FF480705B4908611C
:100A70004000486100205A49086080205749486179
:100A80000861800008614010086140004861002052
:100A9000534908608020514948610861800008611D
:100AA000401008614000486120124D4908608020D4
:100AB0004A494861086180000861401008614000AF
:100AC0004861E0B2464908608020444948610861B5
:100AD0008000086141E043494889FFF781FE4FF4F7
:100AE00080703E4908614000486120123C4908601E
:100AF00080203A494861086180000861401008611F
:100B000040004861E0B236490860802033494861BE
:100B10000861800008614010086140004861314868
:100B20000088401E00122E49086080202B49486131
:100B30000861800008614010086140004861294850
:100B40000078401EC0B22649086000E04CE08020DA
:100B50002249486108618000086122498889FFF7BD
:100B60003FFE4FF480701D49086140004861281223
:100B70001B490860802019494861086180000861AC
:100B80004010086140004861E8B2154908608020C3
:100B90001249486108618000086140100861400006
:100BA000486110484088401E00120D4908608020AE
:100BB0000A494861086180000861401008614000EE
:100BC000486108488078401EC0B20549086080200E
:100BD000024948610861800008616FE0001001402F
:100BE0000C0C0140F0000020F748808845F21051BD
:100BF000884250D1F4494889FFF7F2FD4FF48070E4
:100C0000F2490861400048612012F14908608020E3
:100C1000EE494861086180000861EB494989491C37
:100C200088B2FFF7DDFD4FF48070E84908614000AD
:100C30004861E0B2E64908608020E4494861086103
:100C400080000861E0498889FFF7CAFD4FF4807091
:100C5000DE490861400048612812DD4908608020B3
:100C6000DA494861086180000861D7498989491CCF
:100C700088B2FFF7B5FD4FF48070D4490861400099
:100C80004861E8B2D24908608020D04948610861D3
:100C90008000086112E0CC488079012804D1CA485C
:100CA0000088401E001B84B2C74948892146FFF7CF
:100CB000E4FDC54988892946FFF7DFFD30BD2DE9F0
:100CC000F04105460E46C0480088A84203DDBE48F4
:100CD0004088B04202DC0020BDE8F0813146284661
:100CE000FFF70FFEB848808849F24131884211D0A1
:100CF000B548808846F6040188420BD0B248808807
:100D000045F21031884205D0AF48808841F6631122
:100D1000884203D12E20FFF763FD0DE0AA488088AA
:100D200045F21051884204D14FF43850FFF758FD76
:100D300002E02220FFF754FD4FF08830A4490C391F
:100D40000860091D08604FF6FF70A149086088150A
:100D50009E49086140004861402048610220FFF739
:100D6000C9FD9B48001F006884B240209749086174
:100D70009548808841F66311884210D14FF4007085
:100D8000924908614FF0333091490C390860091DD0
:100D900008604FF6FF708E49086020469CE74020AF
:100DA0008A4948610220FFF7A5FD8948001F0068B5
:100DB00084B24020854908618348808849F24131E6
:100DC00088420BD08048808845F21031884205D097
:100DD0007D48808845F21051884213D140207B49DC
:100DE00048610220FFF786FD7948001F00681FFA5E
:100DF00080F8402075490861E7B24FF6FF7000EABD
:100E000007270DE07048808846F60401884207D124
:100E100040206E49486108616D48001F006884B237
:100E20004FF40070694908614FF0333068490C395C
:100E30000860091D08604FF6FF7065490860624848
:100E4000808849F22531884216D05F48808844F274
:100E50003551884210D05C488088091F88420BD0E9
:100E60005948808848F68911884205D056488088BC
:100E70004BF20551884201D120462DE75248808827
:100E800049F2413188420BD04F48808845F21031F9
:100E9000884205D04C48808845F21051884207D1DD
:100EA000E012C002B91240EA411040EAE82013E71C
:100EB0002046FFF712FD0FE700B54348808849F24E
:100EC0004131884211D04048808846F6040188426A
:100ED0000BD03D48808845F21031884205D03A4811
:100EE000808841F66311884203D12920FFF778FCFE
:100EF0000FE03548808845F21051884204D14FF404
:100F00002450FFF76DFC04E040F273110720FFF757
:100F1000B4FC00BD00B52C48808849F241318842BC
:100F200011D02948808846F6040188420BD0264813
:100F3000808845F21031884205D02348808841F6E8
:100F40006311884203D12820FFF74AFC0EE01E48B7
:100F5000808845F21051884204D14FF42050FFF7A9
:100F60003FFC03E000210720FFF787FC00BDF0B540
:100F70000546002400271448807901280BD1124827
:100F8000808846F60401884205D00F48808841F6E3
:100F90006311884208D10C48807920BB0A488088B8
:100FA00041F6631188421ED1082D1BD2DFE805F0FF
:100FB0000406080A12141618062513E0072511E086
:100FC00004250FE005250DE0F00000200010014091
:100FD0000C0C0140012505E0002503E0032501E09C
:100FE000022500BF00BFF848808849F2413188429D
:100FF00017D0F548808846F60401884211D0F2489F
:10100000808845F2103188420BD0EF48808845F245
:101010001051884205D0EC48808841F6631188421F
:101020007ED1082D1CD2DFE805F00406090C0F1252
:10103000151800BF14E044F0800411E044F04004AF
:101040000EE044F0C0040BE044F0200408E044F05B
:10105000600405E044F0A00402E044F0E00400BFB6
:1010600000BFD948808845F21051884202D14FF420
:10107000585700E03627D448808845F2103188421E
:101080000DD0D148808845F21051884207D0CE4813
:10109000808841F66311884201D044F00804CA48B0
:1010A000808846F60401884201D144F002042146BA
:1010B0003846FFF7E2FBC448808841F66311884256
:1010C0001DD004F0200068B1BF480088BE4949889F
:1010D000884214DABC4806884088BB490880084624
:1010E00046800CE0B8480088B7494988884206DD48
:1010F000B54806884088B449088008464680B2480A
:10110000808845F2105188427ED1AF494889FFF767
:1011100067FB4FF48070AD4908614000486100E012
:1011200029E10020AA4908608020A8494861086197
:1011300080000861A4494989491C88B2FFF750FB27
:101140004FF48070A1490861400048610020A04927
:10115000086080209D4948610861800008619A49C3
:101160004989891C88B2FFF73BFB4FF4807097498F
:1011700008614000486194480088401E001294496C
:1011800008608020914948610861800008618E49AB
:101190004989C91C88B2FFF723FB4FF480708B4943
:1011A00008614000486188480078401EC0B2884904
:1011B0000860802085494861086180000861824993
:1011C0008889FFF70DFB4FF480708049086140006B
:1011D000486100207E49086080207C4948610861A0
:1011E0008000086178498989491C88B2FFF7F8FABC
:1011F0004FF48070754908614000486100207449CF
:1012000008608020714900E034E048610861800096
:1012100008616D498989891C88B2FFF7E1FA4FF4AA
:1012200080706A4908614000486167484088401EF4
:1012300000126749086080206449486108618000A5
:10124000086161498989C91C88B2FFF7C9FA4FF45E
:1012500080705E490861400048615B488078401EAC
:10126000C0B25B490860802058494861086180002D
:101270000861A7E054494889FFF7B2FA4FF480703B
:1012800052490861400048610020514908608020AF
:101290004E494861086180000861401008614000C3
:1012A000486100204A490860802048494861086137
:1012B0008000086140100861400048614248008891
:1012C000401E001242490860802040494861086180
:1012D0008000086140100861400048613A48007889
:1012E000401EC0B23A490860802038494861086110
:1012F0008000086134498889FFF772FA4FF48070E2
:10130000324908614000486100203149086080206E
:101310002E49486108618000086140100861400062
:10132000486100202A4908608020284948610861F6
:1013300080000861401008614000486122484088F0
:10134000401E00122249086080202049486108613F
:101350008000086140100861400048611A488078A8
:10136000401EC0B21A4908608020184948610861CF
:101370008000086126E0082D1CD2DFE805F0040794
:101380000A0D0F12151844F0300413E044F0100455
:1013900010E044F020040DE000BF0BE044F03804FE
:1013A00008E044F0280405E044F0180402E044F0AA
:1013B000080400BF00BF032744F480542146384688
:1013C000FFF75BFAF0BD0000F000002000100140C4
:1013D0000C0C014030B504460D4629462046FFF767
:1013E00090FAFFF766FA4FF48070FE4908614000FA
:1013F0004861FD480088FD4908608020F94948613E
:1014000008618000086130BD70B504460D4616467F
:10141000F748808849F24131884205D0F4488088F5
:1014200045F21031884240D1F1494889FFF7D8F997
:101430004FF48070EB490861400048612012EB498D
:1014400008608020E7494861086180000861401019
:10145000086140004861E0B2E44908608020E14949
:101460004861086180000861E1498889FFF7B8F99F
:101470004FF48070DB490861400048612812DB4965
:1014800008608020D74948610861800008614010E9
:10149000086140004861E8B2D44908608020D14921
:1014A00048610861800008613DE1D148808845F2CB
:1014B0001051884250D1CE494889FFF791F94FF435
:1014C0008070C8490861400048612012C74908601F
:1014D0008020C4494861086180000861C449498985
:1014E000491C88B2FFF77CF94FF48070BD49086150
:1014F00040004861E0B2BD4908608020B9494861B8
:10150000086180000861BA498889FFF769F94FF4DA
:101510008070B4490861400048612812B3490860EE
:101520008020B0494861086180000861B04989891C
:10153000491C88B2FFF754F94FF48070A94908613B
:1015400040004861E8B2A94908608020A549486187
:10155000086180000861E6E0A548808841F66311D3
:1015600088427DD1A248807920B9A1480088401ED8
:10157000001B84B29E494889FFF732F94FF480700E
:10158000984908614000486120129849086080200D
:10159000944948610861800008614010086140007A
:1015A0004861E0B29149086080208E494861086135
:1015B00080000861401008614000486120128B499A
:1015C00008608020874948610861800008614010F8
:1015D000086140004861E0B2844908608020814988
:1015E000486108618000086181498889FFF7F8F83F
:1015F0004FF480707B4908614000486128127B49A4
:1016000008608020774948610861800008614010C7
:10161000086140004861E8B274490860802071495F
:10162000486108618000086140100861400048611D
:1016300028126E49086080206A494861086180006C
:1016400008614010086140004861E8B267490860DD
:1016500080206449486108618000086163E0FFE719
:101660006348808846F60401884249D16048807901
:10167000012804D15E480088401E001B84B25C49EA
:101680004889FFF7ADF84FF4807056490861400073
:10169000486120125549086080205249486108611C
:1016A000800008614010086140004861E0B24F4985
:1016B000086080204B4948610861800008614C49FE
:1016C0008889FFF78DF84FF4807046490861400023
:1016D00048612812454908608020424948610861F4
:1016E000800008614010086140004861E8B23F494D
:1016F000086080203B49486108618000086112E071
:101700003B488079012804D139480088401E001BDD
:1017100084B2374948892146FFF7AFF834498889B0
:101720002946FFF7AAF84FF480702E49486140001F
:1017300048612F4800892D49086080202949486167
:101740000861800008614010086140004861274836
:1017500006608020486108618000086170BD2DE945
:10176000F0410446BE20FFF73BF84FF480701D495E
:1017700008614000486105201C4908608020194923
:1017800048610861800008614010086140004861BC
:10179000204607F0E5FB05464FF06632154B07F093
:1017A00075FC074607F098FB1049086080200D493A
:1017B000486108618000086140100861400048618C
:1017C00001200A49086080200649486108618000BC
:1017D00008614010086140004861FF20034908602B
:1017E000802009E0001001408C0000200C0C01401A
:1017F000F000002066660440FE49486108618000F0
:10180000086140100861400048610020FA49086002
:101810008020F84948610861800008614010086133
:10182000400048610020F44908608020F149486187
:10183000086180000861BDE8F08110B50446002C05
:1018400066D1EE498871F02008804FF4A07048807E
:101850000846808849F2413188420BD0E7488088A9
:1018600046F60401884205D0E448808845F21031EC
:1018700088421AD12C20E14908812A2048812B2056
:1018800088810846808846F60401884205D0DB48F6
:10189000808845F21031884206D14FF4A070D749B4
:1018A00008804FF4F0704880A1E0D448808845F269
:1018B0001051884210D14FF43050D04908814FF474
:1018C000285048814FF42C5088814FF4F0700880E4
:1018D0004FF4487048808AE0C848808841F6631118
:1018E00088420DD12C20C54908812B2048812A200F
:1018F00088814FF4F07008804FF44870488076E09B
:101900002220BE49088120204881212088816EE064
:101910000120BA4988714FF4A0700880F0204880F7
:101920000846808849F24131884205D0B348808812
:1019300045F21031884207D12C20B04908812A2075
:1019400048812B2088813FE0AC48808846F604011E
:10195000884207D12C20A94908812B2048812A20C0
:10196000888131E0A548808845F21051884210D125
:101970004FF43050A14908814FF4285048814FF46A
:101980002C5088814FF4487008804FF4F0704880E4
:101990001AE09A48808841F6631188420DD12C20C4
:1019A000964908812A2048812B2088814FF448706D
:1019B00008804FF4F070488006E022208F490881AB
:1019C00021204881202088818C48808846F60401A7
:1019D000884205D08948808845F21031884206D176
:1019E0004FF4F070854908804FF4A07048800020C3
:1019F000FFF7BDFA10BD2DE9F04F86B004460D4645
:101A00009046994604EB0800401E86B205EB09009B
:101A1000401E87B27948808849F24131884215D00A
:101A20007648808845F2103188420FD0734880880C
:101A300046F60401884209D07048807901287BD19C
:101A40006E48808841F66311884275D16B49488998
:101A5000FEF7C6FE4FF48070664908614000486199
:101A60002012654908608020624948610861800051
:101A700008614010086140004861E0B25E490860BA
:101A800080205C494861086180000861401008615D
:101A9000400048613012584908608020554948612B
:101AA0000861800008614010086140004861F0B2A0
:101AB0005149086080204F494861086180000861F1
:101AC0004E498889FEF78CFE4FF4807049490861C1
:101AD0004000486128124849086080204549486113
:101AE0000861800008614010086140004861E8B268
:101AF0004149086080203F494861086180000861D1
:101B0000401008614000486138123B49086080205D
:101B10003849486108618000086140100861400050
:101B20004861F8B234490860802032494861086150
:101B30008000086177E1FFE73048808841F6631153
:101B400088427DD12D480088A0EB0800001B84B29C
:101B500005EB0900401E1FFA80F928494889FEF765
:101B60003FFE4FF480702349086140004861201215
:101B70002149086080201F49486108618000086190
:101B80004010086140004861E0B21B4908608020B5
:101B900018494861086180000861401008614000F0
:101BA000486104EB0800401E0012134908608020C1
:101BB00010494861086180000861401008614000D8
:101BC000486104EB0800401EC0B20B490860802049
:101BD0000849486108618000086108498889FEF762
:101BE000FFFD4FF4807003490861400048612812EE
:101BF000014905E0001001400C0C0140F0000020FC
:101C000008608020FE49486108618000086140103A
:101C1000086140004861E8B2FA4908608020F8494C
:101C20004861086180000861401008614000486117
:101C30004FEA2920F34908608020F149486100E01B
:101C400011E00861800008614010086140004861AF
:101C500009F0FF00EB4908608020E949486108610C
:101C600080000861DFE0E848808845F21051884232
:101C70007ED1E5494889FEF7B3FD4FF48070E04915
:101C80000861400048612012DE4908608020DC497C
:101C90004861086180000861DB494989491C88B2B4
:101CA000FEF79EFD4FF48070D54908614000486101
:101CB000E0B2D44908608020D149486108618000C1
:101CC0000861D1494989891C88B2FEF789FD4FF422
:101CD0008070CB490861400048613012C9490860F2
:101CE0008020C7494861086180000861C649498968
:101CF000C91C88B2FEF774FD4FF48070C0490861BA
:101D000040004861F0B2BF4908608020BC4948618A
:101D1000086180000861BC498889FEF761FD4FF4C5
:101D20008070B7490861400048612812B5490860D1
:101D30008020B3494861086180000861B2498989FF
:101D4000491C88B2FEF74CFD4FF48070AC49086125
:101D500040004861E8B2AB4908608020A84948616A
:101D6000086180000861A8498989891C88B200E05F
:101D700026E0FEF735FD4FF48070A1490861400070
:101D8000486138129F49086080209D494861086178
:101D9000800008619C498989C91C88B2FEF720FD32
:101DA0004FF480709649086140004861F8B2954947
:101DB000086080209249486108618000086132E033
:101DC0009148807901280ED1AA46BB468E480088EA
:101DD000801B401E80B201908B480088001B401E73
:101DE00080B2009003E0A246B346019500975020D0
:101DF00005905120049052200390532002905146A8
:101E00000598FEF73AFD59460498FEF736FD01990C
:101E10000398FEF732FD00990298FEF72EFD294641
:101E20002046FEF76EFD06B0BDE8F08F70B50446A3
:101E3000002675480588408845437348808846F6E3
:101E40000401884216D170488079012812D10020FF
:101E50006D4988712A2048812B20888100210846FD
:101E6000FEF74FFD0120684988712B2048812A2008
:101E7000888103E000210846FEF743FDFEF719FDC7
:101E800000260DE04FF480705D4908614000486114
:101E90005C48046080204861086180000861761C0D
:101EA000AE42EFD370BD08B50121192005F07CFBCF
:101EB0000121564805F08DF94FF4F860ADF80000A7
:101EC00010208DF8030003208DF8020069464C486D
:101ED00005F0AEF84FF4F861494805F056F94FF6B1
:101EE000FF70ADF80000694646480C3805F0A0F8D0
:101EF0004FF6FF7143480C3805F047F9322004F0E3
:101F00004AFF01210020FEF7B8FC322004F043FF15
:101F10000020FEF7C6FC3C49888008468088FF28E0
:101F20000ADB084680884FF6FF71884204D03648A5
:101F30008088B0F5134F62D1D320FEF751FCFEF735
:101F40006BFCFEF769FCFEF767FC2F4988800846AA
:101F500080884FF6FF7101EA00202B498880FEF748
:101F60005BFC29498988084327498880084680887E
:101F700049F24131884242D0BF20FEF731FCFEF7E2
:101F80004BFCFEF749FCFEF747FCFEF745FC1E49FB
:101F90008880084680884FF6FF7101EA00201A49C0
:101FA0008880FEF739FC18498988084316498880DB
:101FB0000846808846F6040188427CD0D420FEF78B
:101FC0000FFCFEF729FCFEF727FCFEF725FC0E4967
:101FD0008880084680884FF6FF7101EA00200A4990
:101FE0008880FEF719FC08498988084306498880DB
:101FF0000846808845F2103188425CD008E05AE0FB
:10200000001001400C0C0140F000002000023000E4
:102010004FF45A40FEF7E4FBFEF7FEFB4FF45B4043
:10202000FEF7DEFBFEF7F8FBFE4988800846808855
:102030004FF6FF7101EA0020FA4988804FF45C40B6
:10204000FEF7CEFBFEF7E8FBF64989880843F54921
:10205000888008468088B0F5004F02D145F21050C4
:102060008880F048808845F21051884223D0A12012
:10207000FEF7B6FBFEF7D0FBEA498880FEF7CCFB03
:10208000E8498880084680884FF6FF7101EA002001
:10209000E4498880FEF7C0FBE24989880843E149AA
:1020A00088800846808845F26171884203D141F6F4
:1020B0006310DC498880DB488188DBA005F0EAFFFB
:1020C000D848808849F2413188427CD1CF20FEF740
:1020D00087FB0020FEF792FBC120FEF78FFB30202C
:1020E000FEF78CFBED20FEF77BFB6420FEF786FB02
:1020F0000320FEF783FB1220FEF780FB8120FEF712
:102100007DFBE820FEF76CFB8520FEF777FB1020B7
:10211000FEF774FB7A20FEF771FBCB20FEF760FB25
:102120003920FEF76BFB2C20FEF768FB0020FEF742
:1021300065FB3420FEF762FB0220FEF75FFBF72011
:10214000FEF74EFB2020FEF759FBEA20FEF748FB86
:102150000020FEF753FB0020FEF750FBC020FEF7E7
:102160003FFB1B20FEF74AFBC120FEF739FB012095
:10217000FEF744FBC520FEF733FB3020FEF73EFBA5
:102180003020FEF73BFBC720FEF72AFBB720FEF707
:1021900035FB3620FEF724FB4820FEF72FFB3A20C4
:1021A000FEF71EFB5520FEF729FBB120FEF718FBBA
:1021B0000020FEF723FB1A20FEF720FBB620FEF7D7
:1021C0000FFB0A2000E099E0FEF718FBA220FEF7C3
:1021D00015FBF220FEF704FB0020FEF70FFB262084
:1021E000FEF7FEFA0120FEF709FBE020FEF7F8FA01
:1021F0000F20FEF703FB2A20FEF700FB2820FEF746
:10220000FDFA0820FEF7FAFA0E20FEF7F7FA08208A
:10221000FEF7F4FA5420FEF7F1FAA920FEF7EEFAE1
:102220004320FEF7EBFA0A20FEF7E8FA0F20FEF74C
:10223000E5FA0020FEF7E2FA0020FEF7DFFA0020C0
:10224000FEF7DCFA0020FEF7D9FAE120FEF7C8FA23
:102250000020FEF7D3FA1520FEF7D0FA1720FEF77C
:10226000CDFA0720FEF7CAFA1120FEF7C7FA0620BA
:10227000FEF7C4FA2B20FEF7C1FA5620FEF7BEFA8D
:102280003C20FEF7BBFA0520FEF7B8FA1020FEF757
:10229000B5FA0F20FEF7B2FA3F20FEF7AFFA3F2063
:1022A000FEF7ACFA0F20FEF7A9FA2B20FEF798FAFA
:1022B0000020FEF7A3FA0020FEF7A0FA0120FEF7A7
:1022C0009DFA3F20FEF79AFA2A20FEF789FA0020AD
:1022D000FEF794FA0020FEF791FA0020FEF78EFA3E
:1022E000EF20FEF78BFA1120FEF77AFA782004F03F
:1022F00052FD2920FEF774FA03F0A5BB49488088F7
:1023000046F6040188427CD11120FEF769FA1420B8
:1023100004F041FDD020FEF763FA0720FEF76EFAC5
:102320004220FEF76BFA1D20FEF768FAD120FEF777
:1023300057FA0020FEF762FA1A20FEF75FFA09202A
:10234000FEF75CFAD220FEF74BFA0120FEF756FAB0
:102350002220FEF753FAC020FEF742FA1020FEF7C3
:102360004DFA3B20FEF74AFA0020FEF747FA02201A
:10237000FEF744FA1120FEF741FAC520FEF730FAC5
:102380000320FEF73BFAC820FEF72AFA0020FEF7EA
:1023900035FA2520FEF732FA2120FEF72FFA052024
:1023A000FEF72CFA0020FEF729FA0A20FEF726FA9B
:1023B0006520FEF723FA2520FEF720FA7720FEF7A6
:1023C0001DFA5020FEF71AFA0F20FEF717FA002028
:1023D000FEF714FAF820FEF703FA0120FEF70EFAD2
:1023E000FE20FEF7FDF90020FEF708FA0220FEF7B6
:1023F00005FA2020FEF7F4F93620FEF7F1F908205F
:1024000000E037E0FEF7FAF93A20FEF7E9F9552047
:10241000FEF7F4F92B20FEF7E3F90020FEF7EEF9C2
:10242000002009E0F0000020204C43442049443AB9
:1024300025780D0A00000000FEF7E0F90120FEF704
:10244000DDF93F20FEF7DAF92A20FEF7C9F900206E
:10245000FEF7D4F90020FEF7D1F90120FEF7CEF9FE
:10246000DF20FEF7CBF9782004F095FC2920FEF759
:10247000B7F941E7FE48808845F21031884240F0C4
:102480007C87ED20FEF7ACF90120FEF7B7F9FE20BE
:10249000FEF7B4F9EE20FEF7A3F9DE20FEF7AEF961
:1024A0002120FEF7ABF9F120FEF79AF90120FEF7A3
:1024B000A5F9DF20FEF794F91020FEF79FF9C4205C
:1024C000FEF78EF98F20FEF799F9C620FEF788F9FE
:1024D0000020FEF793F9E220FEF790F9E220FEF7E4
:1024E0008DF9E220FEF78AF9BF20FEF779F9AA20DC
:1024F000FEF784F9B020FEF773F90D20FEF77EF9A0
:102500000020FEF77BF90D20FEF778F90020FEF79A
:1025100075F91120FEF772F90020FEF76FF9192006
:10252000FEF76CF90020FEF769F92120FEF766F945
:102530000020FEF763F92D20FEF760F90020FEF77A
:102540005DF93D20FEF75AF90020FEF757F95D20AE
:10255000FEF754F90020FEF751F95D20FEF74EF921
:102560000020FEF74BF9B120FEF73AF98020FEF784
:1025700045F90020FEF742F98B20FEF73FF90020D5
:10258000FEF73CF99620FEF739F90020FEF736F900
:10259000B220FEF725F90020FEF730F90020FEF703
:1025A0002DF90220FEF72AF90020FEF727F9032073
:1025B000FEF724F90020FEF721F9B320FEF710F909
:1025C0000020FEF71BF90020FEF718F90020FEF7A7
:1025D00015F90020FEF712F90020FEF70FF9002090
:1025E000FEF70CF90020FEF709F90020FEF706F9C6
:1025F0000020FEF703F90020FEF700F90020FEF7A7
:10260000FDF80020FEF7FAF80020FEF7F7F80020AA
:10261000FEF7F4F80020FEF7F1F80020FEF7EEF8E0
:102620000020FEF7EBF80020FEF7E8F80020FEF7A8
:10263000E5F80020FEF7E2F80020FEF7DFF80020C2
:10264000FEF7DCF80020FEF7D9F80020FEF7D6F8F8
:10265000B420FEF7C5F88B20FEF7D0F80020FEF777
:10266000CDF89620FEF7CAF80020FEF7C7F8A120A3
:10267000FEF7C4F80020FEF7C1F8B520FEF7B0F869
:102680000220FEF7BBF80020FEF7B8F80320FEF7A3
:10269000B5F80020FEF7B2F80420FEF7AFF80020EE
:1026A000FEF7ACF8B620FEF79BF80020FEF7A6F880
:1026B0000020FEF7A3F8B720FEF792F80020FEF7FF
:1026C0009DF80020FEF79AF83F20FEF797F80020CB
:1026D000FEF794F85E20FEF791F80020FEF78EF8E2
:1026E0006420FEF78BF80020FEF788F88C20FEF7B8
:1026F00085F80020FEF782F8AC20FEF77FF8002076
:10270000FEF77CF8DC20FEF779F80020FEF776F87B
:102710007020FEF773F80020FEF770F89020FEF7A7
:102720006DF80020FEF76AF8EB20FEF767F800204E
:10273000FEF764F8DC20FEF761F80020FEF75EF893
:10274000B820FEF74DF80020FEF758F80020FEF7FD
:1027500055F80020FEF752F80020FEF74FF8002051
:10276000FEF74CF80020FEF749F80020FEF746F887
:102770000020FEF743F8BA20FEF732F82420FEF7D7
:102780003DF80020FEF73AF80020FEF737F8002069
:10279000FEF734F8C120FEF723F82020FEF72EF8CC
:1027A0000020FEF72BF85420FEF728F80020FEF753
:1027B00025F8FF20FEF722F80020FEF71FF8C220C0
:1027C000FEF70EF80A20FEF719F80020FEF716F8BB
:1027D0000420FEF713F80020FEF710F8C320FDF7E1
:1027E000FFFF3C20FEF70AF80020FEF707F83A202A
:1027F000FEF704F80020FEF701F83920FDF7FEFF90
:102800000020FDF7FBFF3720FDF7F8FF0020FDF764
:10281000F5FF3C20FDF7F2FF0020FDF7EFFF36202B
:10282000FDF7ECFF0020FDF7E9FF3220FDF7E6FFA2
:102830000020FDF7E3FF2F20FDF7E0FF0020FDF76C
:10284000DDFF2C20FDF7DAFF0020FDF7D7FF292060
:10285000FDF7D4FF0020FDF7D1FF2620FDF7CEFFC6
:102860000020FDF7CBFF2420FDF7C8FF002001E08A
:10287000F0000020FDF7C2FF2420FDF7BFFF00207D
:10288000FDF7BCFF2320FDF7B9FF0020FDF7B6FFE1
:102890003C20FDF7B3FF0020FDF7B0FF3620FDF729
:1028A000ADFF0020FDF7AAFF3220FDF7A7FF0020B3
:1028B000FDF7A4FF2F20FDF7A1FF0020FDF79EFFED
:1028C0002C20FDF79BFF0020FDF798FF2920FDF746
:1028D00095FF0020FDF792FF2620FDF78FFF0020D7
:1028E000FDF78CFF2420FDF789FF0020FDF786FF10
:1028F0002420FDF783FF0020FDF780FF2320FDF754
:102900007DFF0020FDF77AFFC420FDF769FF6220FC
:10291000FDF774FF0020FDF771FF0520FDF76EFF46
:102920000020FDF76BFF8420FDF768FF0020FDF716
:1029300065FFF020FDF762FF0020FDF75FFF182024
:10294000FDF75CFF0020FDF759FFA420FDF756FFBF
:102950000020FDF753FF1820FDF750FF0020FDF782
:102960004DFF5020FDF74AFF0020FDF747FF0C20E8
:10297000FDF744FF0020FDF741FF1720FDF73EFF64
:102980000020FDF73BFF9520FDF738FF0020FDF705
:1029900035FFF320FDF732FF0020FDF72FFFE62083
:1029A000FDF72CFF0020FDF729FFC520FDF718FFDC
:1029B0003220FDF723FF0020FDF720FF4420FDF724
:1029C0001DFF0020FDF71AFF6520FDF717FF00200F
:1029D000FDF714FF7620FDF711FF0020FDF70EFF35
:1029E0008820FDF70BFF0020FDF708FFC620FDF74C
:1029F000F7FE2020FDF702FF0020FDF7FFFE172065
:102A0000FDF7FCFE0020FDF7F9FE0120FDF7F6FEC4
:102A10000020FDF7F3FEC720FDF7E2FE0020FDF7E2
:102A2000EDFE0020FDF7EAFE0020FDF7E7FE0020A6
:102A3000FDF7E4FEC820FDF7D3FE0020FDF7DEFE23
:102A40000020FDF7DBFE0020FDF7D8FE0020FDF79B
:102A5000D5FEC920FDF7C4FE0020FDF7CFFE002003
:102A6000FDF7CCFE0020FDF7C9FE0020FDF7C6FEF5
:102A70000020FDF7C3FE0020FDF7C0FE0020FDF79B
:102A8000BDFE0020FDF7BAFE0020FDF7B7FE0020D6
:102A9000FDF7B4FE0020FDF7B1FE0020FDF7AEFE0D
:102AA0000020FDF7ABFE0020FDF7A8FE0020FDF79B
:102AB000A5FE0020FDF7A2FEE020FDF791FE162006
:102AC000FDF79CFE0020FDF799FE1C20FDF796FE09
:102AD0000020FDF793FE2120FDF790FE0020FDF77A
:102AE0008DFE3620FDF78AFE0020FDF787FE46208A
:102AF000FDF784FE0020FDF781FE5220FDF77EFEEB
:102B00000020FDF77BFE6420FDF778FE0020FDF736
:102B100075FE7A20FDF772FE0020FDF76FFE8B2018
:102B2000FDF76CFE0020FDF769FE9920FDF766FEBB
:102B30000020FDF763FEA820FDF760FE0020FDF7F2
:102B40005DFEB920FDF75AFE0020FDF757FEC420B8
:102B5000FDF754FE0020FDF751FECA20FDF74EFEA2
:102B60000020FDF74BFED220FDF748FE0020FDF7C8
:102B700045FED920FDF742FE0020FDF73FFEE02094
:102B8000FDF73CFE0020FDF739FEF320FDF736FE91
:102B90000020FDF733FEE120FDF722FE1620FDF7B1
:102BA0002DFE0020FDF72AFE1C20FDF727FE002049
:102BB000FDF724FE2220FDF721FE0020FDF71EFE7A
:102BC0003620FDF71BFE0020FDF718FE4520FDF71F
:102BD00015FE0020FDF712FE5220FDF70FFE00202B
:102BE000FDF70CFE6420FDF709FE0020FDF706FE50
:102BF0007A20FDF703FE0020FDF700FE8B20FDF795
:102C0000FDFD0020FDF7FAFD9920FDF7F7FD0020FE
:102C1000FDF7F4FDA820FDF7F1FD0020FDF7EEFD26
:102C2000B920FDF7EBFD0020FDF7E8FDC420FDF71E
:102C3000E5FD0020FDF7E2FDCA20FDF7DFFD0020E5
:102C4000FDF7DCFDD220FDF7D9FD0020FDF7D6FD14
:102C5000D820FDF7D3FD0020FDF7D0FDE020FDF7E3
:102C6000CDFD0020FDF7CAFDF320FDF7C7FD0020D4
:102C7000FDF7C4FDE220FDF7B3FD0520FDF7BEFD25
:102C80000020FDF7BBFD0B20FDF7B8FD0020FDF790
:102C9000B5FD1B20FDF7B2FD0020FDF7AFFD342090
:102CA000FDF7ACFD0020FDF7A9FD4420FDF7A6FDD2
:102CB0000020FDF7A3FD4F20FDF7A0FD0020FDF74C
:102CC0009DFD6120FDF79AFD0020FDF797FD79201D
:102CD000FDF794FD0020FDF791FD8820FDF78EFDA6
:102CE0000020FDF78BFD9720FDF788FD0020FDF704
:102CF00085FDA620FDF782FD0020FDF77FFDB720B2
:102D0000FDF77CFD0020FDF779FDC220FDF776FD83
:102D10000020FDF773FDC720FDF770FD0020FDF7D3
:102D20006DFDD120FDF76AFD0020FDF767FDD6207F
:102D3000FDF764FD0020FDF761FDDD20FDF75EFD80
:102D40000020FDF75BFDF320FDF758FD0020FDF7A7
:102D500055FDE320FDF744FD0520FDF74FFD002064
:102D6000FDF74CFD0A20FDF749FD0020FDF746FD6B
:102D70001C20FDF743FD0020FDF740FD3320FDF74B
:102D80003DFD0020FDF73AFD4420FDF737FD002012
:102D9000FDF734FD5020FDF731FD0020FDF72EFD3D
:102DA0006220FDF72BFD0020FDF728FD7820FDF7C0
:102DB00025FD0020FDF722FD8820FDF71FFD0020E6
:102DC000FDF71CFD9720FDF719FD0020FDF716FD0E
:102DD000A620FDF713FD0020FDF710FDB720FDF73D
:102DE0000DFD0020FDF70AFDC220FDF707FD0020C4
:102DF000FDF704FDC720FDF701FD0020FDF7FEFCF7
:102E0000D120FDF7FBFC0020FDF7F8FCD520FDF7F5
:102E1000F5FC0020FDF7F2FCDD20FDF7EFFC0020C3
:102E2000FDF7ECFCF320FDF7E9FC0020FDF7E6FCE4
:102E3000E420FDF7D5FC0120FDF7E0FC0020FDF7C4
:102E4000DDFC0120FDF7DAFC0020FDF7D7FC0220B5
:102E5000FDF7D4FC0020FDF7D1FC2A20FDF7CEFCC5
:102E60000020FDF7CBFC3C20FDF7C8FC0020FDF75F
:102E7000C5FC4B20FDF7C2FC0020FDF7BFFC5D2028
:102E8000FDF7BCFC0020FDF7B9FC7420FDF7B6FC93
:102E90000020FDF7B3FC8420FDF7B0FC0020FDF717
:102EA000ADFC9320FDF7AAFC0020FDF7A7FCA220B3
:102EB000FDF7A4FC0020FDF7A1FCB320FDF79EFC6C
:102EC0000020FDF79BFCBE20FDF798FC0020FDF7DD
:102ED00095FCC420FDF792FC0020FDF78FFCCD206F
:102EE000FDF78CFC0020FDF789FCD320FDF786FC64
:102EF0000020FDF783FCDD20FDF780FC0020FDF7BE
:102F00007DFCF320FDF77AFC0020FDF777FCE5203F
:102F1000FDF766FC0020FDF771FC0020FDF76EFC5C
:102F20000020FDF76BFC0020FDF768FC0220FDF798
:102F300065FC0020FDF762FC2920FDF75FFC002006
:102F4000FDF75CFC3C20FDF759FC0020FDF756FC2A
:102F50004B20FDF753FC0020FDF750FC5D20FDF7F2
:102F60004DFC0020FDF74AFC7420FDF747FC0020D3
:102F7000FDF744FC8420FDF741FC0020FDF73EFCFA
:102F80009320FDF73BFC0020FDF738FCA220FDF765
:102F900035FC0020FDF732FCB320FDF72FFC0020AC
:102FA000FDF72CFCBE20FDF729FC0020FDF726FCD8
:102FB000C420FDF723FC0020FDF720FCCD20FDF709
:102FC0001DFC0020FDF71AFCD320FDF717FC0020A4
:102FD000FDF714FCDC20FDF711FC0020FDF70EFCD2
:102FE000F320FDF70BFC0020FDF708FCE620FDF7C1
:102FF000F7FB1120FDF702FC0020FDF7FFFB34205A
:10300000FDF7FCFB0020FDF7F9FB5620FDF7F6FB72
:103010000020FDF7F3FB7620FDF7F0FB0020FDF725
:10302000EDFB7720FDF7EAFB0020FDF7E7FB6620CC
:10303000FDF7E4FB0020FDF7E1FB8820FDF7DEFB58
:103040000020FDF7DBFB9920FDF7D8FB0020FDF702
:10305000D5FBBB20FDF7D2FB0020FDF7CFFB99206D
:10306000FDF7CCFB0020FDF7C9FB6620FDF7C6FB92
:103070000020FDF7C3FB5520FDF7C0FB0020FDF746
:10308000BDFB5520FDF7BAFB0020FDF7B7FB45203F
:10309000FDF7B4FB0020FDF7B1FB4320FDF7AEFBCD
:1030A0000020FDF7ABFB4420FDF7A8FB0020FDF757
:1030B000A5FBE720FDF794FB3220FDF79FFB0020E6
:1030C000FDF79CFB5520FDF799FB0020FDF796FBD3
:1030D0007620FDF793FB0020FDF790FB6620FDF7BF
:1030E0008DFB0020FDF78AFB6720FDF787FB0020A2
:1030F000FDF784FB6720FDF781FB0020FDF77EFBD9
:103100008720FDF77BFB0020FDF778FB9920FDF77A
:1031100075FB0020FDF772FBBB20FDF76FFB002065
:10312000FDF76CFB9920FDF769FB0020FDF766FBBE
:103130007720FDF763FB0020FDF760FB4420FDF7DF
:103140005DFB0020FDF75AFB5620FDF757FB0020E2
:10315000FDF754FB2320FDF751FB0020FDF74EFB4C
:103160003320FDF74BFB0020FDF748FB4520FDF722
:1031700045FB0020FDF742FBE820FDF731FB002076
:10318000FDF73CFB0020FDF739FB9920FDF736FBEE
:103190000020FDF733FB8720FDF730FB0020FDF713
:1031A0002DFB8820FDF72AFB0020FDF727FB772069
:1031B000FDF724FB0020FDF721FB6620FDF71EFB39
:1031C0000020FDF71BFB8820FDF718FB0020FDF712
:1031D00015FBAA20FDF712FB0020FDF70FFBBB201B
:1031E000FDF70CFB0020FDF709FB9920FDF706FB1E
:1031F0000020FDF703FB6620FDF700FB0020FDF734
:10320000FDFA5520FDF7FAFA0020FDF7F7FA5520F0
:10321000FDF7F4FA0020FDF7F1FA4420FDF7EEFA8D
:103220000020FDF7EBFA4420FDF7E8FA0020FDF757
:10323000E5FA5520FDF7E2FA0020FDF7DFFAE92074
:10324000FDF7CEFAAA20FDF7D9FA0020FDF7D6FA4D
:103250000020FDF7D3FA0020FDF7D0FA0020FDF79B
:10326000BFFAAA20FDF7CAFACF20FDF7B9FA00206D
:10327000FDF7C4FA0020FDF7C1FA0020FDF7BEFA01
:103280000020FDF7BBFA0020FDF7B8FA0020FDF79B
:10329000B5FA0020FDF7B2FA0020FDF7AFFA0020E2
:1032A000FDF7ACFA0020FDF7A9FA0020FDF7A6FA19
:1032B0000020FDF7A3FA0020FDF7A0FA0020FDF79B
:1032C0009DFA0020FDF79AFA0020FDF797FA0020FA
:1032D000FDF794FAF020FDF783FA0020FDF78EFA4F
:1032E0005020FDF78BFA0020FDF788FA0020FDF74B
:1032F00085FA0020FDF782FAF320FDF771FA00202D
:10330000FDF77CFAF920FDF76BFA0620FDF776FA57
:103310001020FDF773FA2920FDF770FA0020FDF761
:103320006DFA3A20FDF75CFA5520FDF767FA112097
:10333000FDF756FA642003F02EFD2920FDF750FA20
:103340003520FDF74DFA0020FDF758FA5120FDF722
:1033500047FAFF20FDF752FA5320FDF741FA2C20DF
:10336000FDF74CFA5520FDF73BFA8220FDF746FAAF
:103370002C20FDF735FA02F066BBFE48808845F246
:10338000105188427ED155214FF47040FDF775FAF7
:10339000AA214FF20100FDF770FA52214FF202000C
:1033A000FDF76BFA08214FF20300FDF766FA0121E1
:1033B0004FF20400FDF761FA0D214FF43040FDF7A4
:1033C0005CFA0D214BF20100FDF757FA0D214BF28B
:1033D0000200FDF752FA34214FF43640FDF74DFA62
:1033E00034214BF20160FDF748FA34214BF20260C0
:1033F000FDF743FA0D214FF43140FDF73EFA0D2160
:103400004BF20110FDF739FA0D214BF20210FDF7D6
:1034100034FA34214FF43740FDF72FFA34214BF2C0
:103420000170FDF72AFA34214BF20270FDF725FAFC
:1034300000214FF43240FDF720FA00214BF2012029
:10344000FDF71BFA00214BF20220FDF716FA2421AA
:103450004FF43840FDF711FA24214BF60100FDF737
:103460000CFA24214BF60200FDF707FA01214FF474
:103470003F40FDF702FA0F214FF43340FDF7FDF90D
:103480000F2100E0FEE34BF20130FDF7F6F90F21CA
:103490004BF20230FDF7F1F934214FF43940FDF7DA
:1034A000ECF934214BF60110FDF7E7F934214BF626
:1034B0000210FDF7E2F908214FF43540FDF7DDF980
:1034C00008214BF20150FDF7D8F908214BF20250C8
:1034D000FDF7D3F903214FF44240FDF7CEF9242143
:1034E0004FF43A40FDF7C9F924214BF60120FDF7CE
:1034F000C4F924214BF60220FDF7BFF900214FF457
:103500003C40FDF7BAF978214BF60140FDF7B5F9DB
:1035100000214BF60240FDF7B0F900214FF43D4089
:10352000FDF7ABF978214BF60150FDF7A6F9002124
:103530004BF60250FDF7A1F900214FF43E40FDF794
:103540009CF964214BF60160FDF797F900214FF4D7
:103550005140FDF792F933214DF20110FDF78DF93D
:1035600000214DF20210FDF788F934214DF20310CD
:10357000FDF783F900214DF20410FDF77EF93A21A1
:103580004DF20510FDF779F900214DF20610FDF717
:1035900074F94A214DF20710FDF76FF900214DF241
:1035A0000810FDF76AF95C214DF20910FDF765F985
:1035B00000214DF20A10FDF760F981214DF20B1048
:1035C000FDF75BF900214DF20C10FDF756F9A6212D
:1035D0004DF20D10FDF751F900214DF20E10FDF7DF
:1035E0004CF9E5214DF20F10FDF747F901214DF29D
:1035F0001010FDF742F913214DF21110FDF73DF9BE
:1036000001214DF21210FDF738F954214DF213103B
:10361000FDF733F901214DF21410FDF72EF9822147
:103620004DF21510FDF729F901214DF21610FDF7A5
:1036300024F9CA214DF21710FDF71FF902214DF2AE
:103640001810FDF71AF900214DF21910FDF715F9C0
:1036500002214DF21A10FDF710F901214DF21B1055
:10366000FDF70BF902214DF21C10FDF706F934218C
:103670004DF21D10FDF701F902214DF21E10FDF76C
:10368000FCF867214DF21F10FDF7F7F802214DF20B
:103690002010FDF7F2F884214DF22110FDF7EDF82E
:1036A00002214DF22210FDF7E8F8A4214DF223107B
:1036B000FDF7E3F802214DF22410FDF7DEF8B72103
:1036C0004DF22510FDF7D9F802214DF22610FDF735
:1036D000D4F8CF214DF22710FDF7CFF802214DF29B
:1036E0002810FDF7CAF8DE214DF22910FDF7C5F8C4
:1036F00002214DF22A10FDF7C0F8F2214DF22B10F5
:10370000FDF7BBF802214DF22C10FDF7B6F8FE21B3
:103710004DF22D10FDF7B1F803214DF22E10FDF7FB
:10372000ACF810214DF22F10FDF7A7F803214DF250
:103730003010FDF7A2F833214DF23110FDF79DF85E
:1037400003214DF23210FDF798F86D214DF2331040
:10375000FDF793F800214FF45240FDF78EF8332126
:103760004DF20120FDF789F800214DF20220FDF70E
:1037700084F801E0F000002034214DF20320FDF731
:103780007CF800214DF20420FDF777F83A214DF244
:103790000520FDF772F800214DF20620FDF76DF8C7
:1037A0004A214DF20720FDF768F800214DF208206C
:1037B000FDF763F85C214DF20920FDF75EF800216A
:1037C0004DF20A20FDF759F881214DF20B20FDF74B
:1037D00054F800214DF20C20FDF74FF8A6214DF2D0
:1037E0000D20FDF74AF800214DF20E20FDF745F8B7
:1037F000E5214DF20F20FDF740F801214DF2102098
:10380000FDF73BF813214DF21120FDF736F80121A9
:103810004DF21220FDF731F854214DF21320FDF73F
:103820002CF801214DF21420FDF727F882214DF2EA
:103830001520FDF722F801214DF21620FDF71DF8A5
:10384000CA214DF21720FDF718F802214DF2182079
:10385000FDF713F800214DF21920FDF70EF80221B3
:103860004DF21A20FDF709F801214DF21B20FDF75A
:1038700004F802214DF21C20FCF7FFFF34214DF229
:103880001D20FCF7FAFF02214DF21E20FCF7F5FF88
:1038900067214DF21F20FCF7F0FF02214DF220209E
:1038A000FCF7EBFF84214DF22120FCF7E6FF02211B
:1038B0004DF22220FCF7E1FFA4214DF22320FCF77A
:1038C000DCFF02214DF22420FCF7D7FFB7214DF297
:1038D0002520FCF7D2FF02214DF22620FCF7CDFF78
:1038E000CF214DF22720FCF7C8FF02214DF22820FE
:1038F000FCF7C3FFDE214DF22920FCF7BEFF0221B9
:103900004DF22A20FCF7B9FFF2214DF22B20FCF7F3
:10391000B4FF02214DF22C20FCF7AFFFFE214DF247
:103920002D20FCF7AAFF03214DF22E20FCF7A5FF66
:1039300010214DF22F20FCF7A0FF03214DF2302083
:10394000FCF79BFF33214DF23120FCF796FF03215A
:103950004DF23220FCF791FF6D214DF23320FCF740
:103960008CFF00214FF45340FCF787FF33214DF2C9
:103970000130FCF782FF00214DF20230FCF77DFFA1
:1039800034214DF20330FCF778FF00214DF2043072
:10399000FCF773FF3A214DF20530FCF76EFF002172
:1039A0004DF20630FCF769FF4A214DF20730FCF773
:1039B00064FF00214DF20830FCF75FFF5C214DF2FF
:1039C0000930FCF75AFF00214DF20A30FCF755FF91
:1039D00081214DF20B30FCF750FF00214DF20C30ED
:1039E000FCF74BFFA6214DF20D30FCF746FF0021FE
:1039F0004DF20E30FCF741FFE5214DF20F30FCF7A0
:103A00003CFF01214DF21030FCF737FF13214DF23E
:103A10001130FCF732FF01214DF21230FCF72DFF7F
:103A200054214DF21330FCF728FF01214DF21430E0
:103A3000FCF723FF82214DF21530FCF71EFF012118
:103A40004DF21630FCF719FFCA214DF21730FCF782
:103A500014FF02214DF21830FCF70FFF00214DF248
:103A60001930FCF70AFF02214DF21A30FCF705FF6E
:103A700001214DF21B30FCF700FF02214DF21C30FA
:103A8000FCF7FBFE34214DF21D30FCF7F6FE02215F
:103A90004DF21E30FCF7F1FE67214DF21F30FCF7AE
:103AA000ECFE02214DF22030FCF7E7FE84214DF2BE
:103AB0002130FCF7E2FE02214DF22230FCF7DDFE60
:103AC000A4214DF22330FCF7D8FE02214DF2243020
:103AD000FCF7D3FEB7214DF22530FCF7CEFE0221D4
:103AE0004DF22630FCF7C9FECF214DF22730FCF70E
:103AF000C4FE02214DF22830FCF7BFFEDE214DF25C
:103B00002930FCF7BAFE02214DF22A30FCF7B5FE4F
:103B1000F2214DF22B30FCF7B0FE02214DF22C3099
:103B2000FCF7ABFEFE214DF22D30FCF7A6FE032183
:103B30004DF22E30FCF7A1FE10214DF22F30FCF794
:103B40009CFE03214DF23030FCF797FE33214DF2FD
:103B50003130FCF792FE03214DF23230FCF78DFE3E
:103B60006D214DF23330FCF788FE00214FF45440B4
:103B7000FCF783FE33214DF20140FCF77EFE00216D
:103B80004DF20240FCF779FE34214DF20340FCF780
:103B900074FE00214DF20440FCF76FFE3A214DF215
:103BA0000540FCF76AFE00214DF20640FCF765FE79
:103BB0004A214DF20740FCF760FE00214DF208401B
:103BC000FCF75BFE5C214DF20940FCF756FE00213C
:103BD0004DF20A40FCF751FE81214DF20B40FCF7FB
:103BE0004CFE00214DF20C40FCF747FEA6214DF2A1
:103BF0000D40FCF742FE00214DF20E40FCF73DFE69
:103C0000E5214DF20F40FCF738FE01214DF2104046
:103C1000FCF733FE13214DF21140FCF72EFE01217B
:103C20004DF21240FCF729FE54214DF21340FCF7EF
:103C300024FE01214DF21440FCF71FFE82214DF2BB
:103C40001540FCF71AFE01214DF21640FCF715FE57
:103C5000CA214DF21740FCF710FE02214DF2184028
:103C6000FCF70BFE00214DF21940FCF706FE022185
:103C70004DF21A40FCF701FE01214DF21B40FCF70A
:103C8000FCFD00E004E302214DF21C40FCF7F5FDD1
:103C900034214DF21D40FCF7F0FD02214DF21E4093
:103CA000FCF7EBFD67214DF21F40FCF7E6FD02211A
:103CB0004DF22040FCF7E1FD84214DF22140FCF75C
:103CC000DCFD02214DF22240FCF7D7FDA4214DF28C
:103CD0002340FCF7D2FD02214DF22440FCF7CDFD3C
:103CE000B7214DF22540FCF7C8FD02214DF22640D8
:103CF000FCF7C3FDCF214DF22740FCF7BEFD0221AA
:103D00004DF22840FCF7B9FDDE214DF22940FCF7C9
:103D1000B4FD02214DF22A40FCF7AFFDF2214DF235
:103D20002B40FCF7AAFD02214DF22C40FCF7A5FD2B
:103D3000FE214DF22D40FCF7A0FD03214DF22E4057
:103D4000FCF79BFD10214DF22F40FCF796FD03215F
:103D50004DF23040FCF791FD33214DF23140FCF73C
:103D60008CFD03214DF23240FCF787FD6D214DF2B1
:103D70003340FCF782FD00214FF45540FCF77DFDF8
:103D800033214DF20150FCF778FD00214DF2025035
:103D9000FCF773FD34214DF20350FCF76EFD00215A
:103DA0004DF20450FCF769FD3A214DF20550FCF745
:103DB00064FD00214DF20650FCF75FFD4A214DF2F3
:103DC0000750FCF75AFD00214DF20850FCF755FD55
:103DD0005C214DF20950FCF750FD00214DF20A50D4
:103DE000FCF74BFD81214DF20B50FCF746FD002105
:103DF0004DF20C50FCF741FDA6214DF20D50FCF7A1
:103E00003CFD00214DF20E50FCF737FDE5214DF24F
:103E10000F50FCF732FD01214DF21050FCF72DFD43
:103E200013214DF21150FCF728FD01214DF21250E3
:103E3000FCF723FD54214DF21350FCF71EFD012128
:103E40004DF21450FCF719FD82214DF21550FCF78C
:103E500014FD01214DF21650FCF70FFDCA214DF261
:103E60001750FCF70AFD02214DF21850FCF705FD32
:103E700000214DF21950FCF700FD02214DF21A50BD
:103E8000FCF7FBFC01214DF21B50FCF7F6FC022174
:103E90004DF21C50FCF7F1FC34214DF21D50FCF7A3
:103EA000ECFC02214DF21E50FCF7E7FC67214DF2BD
:103EB0001F50FCF7E2FC02214DF22050FCF7DDFC24
:103EC00084214DF22150FCF7D8FC02214DF2225002
:103ED000FCF7D3FCA4214DF22350FCF7CEFC0221C9
:103EE0004DF22450FCF7C9FCB7214DF22550FCF7E8
:103EF000C4FC02214DF22650FCF7BFFCCF214DF24D
:103F00002750FCF7BAFC02214DF22850FCF7B5FC13
:103F1000DE214DF22950FCF7B0FC02214DF22A506F
:103F2000FCF7ABFCF2214DF22B50FCF7A6FC022172
:103F30004DF22C50FCF7A1FCFE214DF22D50FCF768
:103F40009CFC03214DF22E50FCF797FC10214DF202
:103F50002F50FCF792FC03214DF23050FCF78DFC02
:103F600033214DF23150FCF788FC03214DF23250E1
:103F7000FCF783FC6D214DF23350FCF77EFC0021F1
:103F80004FF45640FCF779FC33214DF20160FCF709
:103F900074FC00214DF20260FCF76FFC34214DF2FD
:103FA0000360FCF76AFC00214DF20460FCF765FC3D
:103FB0003A214DF20560FCF760FC00214DF20660ED
:103FC000FCF75BFC4A214DF20760FCF756FC002130
:103FD0004DF20860FCF751FC5C214DF20960FCF7E2
:103FE0004CFC00214DF20A60FCF747FC81214DF2A8
:103FF0000B60FCF742FC00214DF20C60FCF73DFC2D
:10400000A6214DF20D60FCF738FC00214DF20E6048
:10401000FCF733FCE5214DF20F60FCF72EFC01218B
:104020004DF21060FCF729FC13214DF21160FCF7F2
:1040300024FC01214DF21260FCF71FFC54214DF2CB
:104040001360FCF71AFC01214DF21460FCF715FC1B
:1040500082214DF21560FCF710FC01214DF2166033
:10406000FCF70BFCCA214DF21760FCF706FC02219D
:104070004DF21860FCF701FC00214DF21960FCF7CD
:10408000FCFB02214DF21A60FCF7F7FB01214DF217
:104090001B60FCF7F2FB02214DF21C60FCF7EDFB0C
:1040A00034214DF21D60FCF7E8FB02214DF21E6049
:1040B000FCF7E3FB67214DF21F60FCF7DEFB0221FA
:1040C0004DF22060FCF7D9FB84214DF22160FCF712
:1040D000D4FB02214DF22260FCF7CFFBA4214DF26C
:1040E0002360FCF7CAFB02214DF22460FCF7C5FBFC
:1040F000B7214DF22560FCF7C0FB02214DF226608E
:10410000FCF7BBFBCF214DF22760FCF7B6FB022189
:104110004DF22860FCF7B1FBDE214DF22960FCF77F
:10412000ACFB02214DF22A60FCF7A7FBF2214DF215
:104130002B60FCF7A2FB02214DF22C60FCF79DFBEB
:10414000FE214DF22D60FCF798FB03214DF22E600D
:10415000FCF793FB10214DF22F60FCF78EFB03213F
:104160004DF23060FCF789FB33214DF23160FCF7F2
:1041700084FB03214DF23260FCF77FFB6D214DF291
:104180003360FCF77AFB55214FF47040FCF775FB68
:10419000AA214FF20100FCF770FB52214FF20200FE
:1041A000FCF76BFB08214FF20300FCF766FB0021D4
:1041B0004FF20400FCF761FBCC214FF43140FCF7D7
:1041C0005CFB00214BF20110FCF757FB05214FF47B
:1041D0003640FCF752FB70214FF43740FCF74DFBA3
:1041E00070214BF20170FCF748FB01214FF438407D
:1041F000FCF743FB03214BF60100FCF73EFB0321D8
:104200004BF60200FCF739FB03214BF60300FCF7E9
:1042100034FB02214FF43C40FCF72FFB00214BF60E
:104220000140FCF72AFB00214BF60240FCF725FB7E
:10423000D0214FF44940FCF720FB02214CF601103D
:10424000FCF71BFB50214CF60210FCF716FB50212B
:104250004CF60310FCF711FB50214CF60410FCF750
:104260000CFB00214FF45450FCF707FB55214FF491
:104270006850FCF702FB4FF48850FCF7B1FA782045
:1042800002F065FD4FF42450FCF7AAFA01F0DBBB05
:10429000FE48808849F2253188427DD147F6F001F9
:1042A000E520FCF7EAFA4FF480710120FCF7E5FA0B
:1042B0004FF4E0610220FCF7E0FA41F23001032004
:1042C000FCF7DBFA00210420FCF7D7FA40F20221C8
:1042D0000820FCF7D2FA00210920FCF7CEFA0021D1
:1042E0000A20FCF7CAFA00210C20FCF7C6FA0021CC
:1042F0000D20FCF7C2FA00210F20FCF7BEFA0021C6
:104300001020FCF7BAFA07211120FCF7B6FA0021B9
:104310001220FCF7B2FA00211320FCF7AEFA0021BC
:104320000720FCF7AAFA41F290611020FCF7A5FAE9
:1043300040F227211120FCF7A0FA9D211220FCF762
:104340009CFA4FF4C8511320FCF797FA2521292035
:10435000FCF793FA0D212B20FCF78FFA0721302070
:10436000FCF78BFA40F203313120FCF786FA032187
:104370003220FCF782FA40F206213520FCF77DFA64
:1043800008213620FCF779FA40F206413720FCF785
:1043900074FA4FF4417100E058E03820FCF76DFAF0
:1043A00007213920FCF769FA40F202613C20FCF752
:1043B00064FA08213D20FCF760FA00215020FCF748
:1043C0005CFAEF215120FCF758FA00215220FCF74B
:1043D00054FA40F23F115320FCF74FFA4FF42741B3
:1043E0006020FCF74AFA01216120FCF746FA00211F
:1043F0006A20FCF742FA00218020FCF73EFA0021F7
:104400008120FCF73AFA00218220FCF736FA0021DD
:104410008320FCF732FA00218420FCF72EFA0021D9
:104420008520FCF72AFA10219020FCF726FA4FF499
:10443000C0619220FCF721FA40F233110720FCF70B
:104440001CFA22210020FCF718FA1FE78F48808809
:1044500049F2283188427DD141F28F01EC20FCF7EE
:104460000CFA41F23421EF20FCF707FA4FF4807187
:104470000120FCF702FA4FF4E0610220FCF7FDF99D
:1044800041F230010320FCF7F8F900210420FCF789
:10449000F4F940F202210820FCF7EFF9002109208D
:1044A000FCF7EBF900210A20FCF7E7F901210C20C9
:1044B000FCF7E3F900210D20FCF7DFF900210F20C4
:1044C000FCF7DBF900211020FCF7D7F907211120B8
:1044D000FCF7D3F900211220FCF7CFF900211320BB
:1044E000FCF7CBF901210720FCF7C7F9322002F0D5
:1044F00052FC41F290411020FCF7BFF940F2272115
:104500001120FCF7BAF9322002F045FC8A21122072
:10451000FCF7B3F9322002F03EFC4FF4D0511320E7
:10452000FCF7ABF906212920FCF7A7F90D212B2078
:10453000FCF7A3F9322002F02EFC00212020FCF72A
:104540009CF900212120FCF798F9322002F023FC8D
:10455000002100E075E03020FCF78FF940F20461A3
:104560003120FCF78AF940F205313220FCF785F959
:1045700000213520FCF781F940F609413620FCF78F
:104580007CF94FF401713720FCF777F940F20131E3
:104590003820FCF772F940F207713920FCF76DF909
:1045A00000213C20FCF769F940F60A213D20FCF788
:1045B00064F9322002F0EFFB00215020FCF75DF996
:1045C000EF215120FCF759F900215220FCF755F951
:1045D00040F23F115320FCF750F94FF4274160207F
:1045E000FCF74BF901216120FCF747F900216A2013
:1045F000FCF743F900218020FCF73FF900218120DE
:10460000FCF73BF900218220FCF737F900218320D9
:10461000FCF733F900218420FCF72FF900218520D5
:10462000FCF72BF910219020FCF727F94FF4C0611B
:104630009220FCF722F940F233110720FCF71DF914
:1046400024E61248808849F2203188427ED1002138
:104650000846FCF712F94FF480710120FCF70DF9C0
:104660004FF4E0610220FCF708F941F23001032029
:10467000FCF703F900210420FCF7FFF840F20221C7
:104680000820FCF7FAF80021092001E0F0000020E2
:10469000FCF7F3F800210A20FCF7EFF801210C20C9
:1046A000FCF7EBF800210D20FCF7E7F800210F20C4
:1046B000FCF7E3F8322002F06EFB40F20111072014
:1046C000FCF7DBF8322002F066FB4FF48651102035
:1046D000FCF7D3F807211120FCF7CFF84FF48871CD
:1046E0001220FCF7CAF84FF430611320FCF7C5F82C
:1046F00000212920FCF7C1F844F210012B20FCF71F
:10470000BCF800215020FCF7B8F8EF215120FCF74D
:10471000B4F800215220FCF7B0F840F23F115320CA
:10472000FCF7ABF84FF41C516020FCF7A6F8012110
:104730006120FCF7A2F800216A20FCF79EF8002116
:104740008020FCF79AF80021812000E030E0FCF79F
:1047500094F800218220FCF790F800218320FCF7D8
:104760008CF800218420FCF788F800218520FCF7D4
:1047700084F810219020FCF780F800219220FCF7AB
:104780007CF801219320FCF778F84FF4887195208C
:10479000FCF773F800219720FCF76FF800219820B0
:1047A000FCF76BF840F273110720FCF766F86DE533
:1047B000FE48808849F2313188427DD141F21401AE
:1047C000E720FCF75AF84FF480710120FCF755F808
:1047D0004FF400710220FCF750F841F23801032039
:1047E000FCF74BF840F202210820FCF746F80021C4
:1047F0000920FCF742F800210A20FCF73EF80021CE
:104800000C20FCF73AF800210D20FCF736F80021C7
:104810000F20FCF732F800211020FCF72EF80721BA
:104820001120FCF72AF800211220FCF726F80021BD
:104830001320FCF722F8C82002F0ADFA41F2906193
:104840001020FCF71AF840F227211120FCF715F888
:10485000322002F0A0FA0C211220FCF70EF83220D0
:1048600002F099FA4FF400611320FCF706F81121C9
:104870002920FCF702F80B212B20FBF7FEFF32204A
:1048800002F089FA00212020FBF7F7FF40F23F11E8
:104890002120FBF7F2FF00213020FBF7EEFF4FF461
:1048A00083713120FBF7E9FF00213220FBF7E5FFA0
:1048B0004FF40171352000E064E0FBF7DEFF41F2C8
:1048C0000A613620FBF7D9FF40F207713720FBF76A
:1048D000D4FF4FF483713820FBF7CFFF40F207710C
:1048E0003920FBF7CAFF40F202413C20FBF7C5FF2D
:1048F00040F60F413D20FBF7C0FF00215020FBF7A1
:10490000BCFFEF215120FBF7B8FF00215220FBF73D
:10491000B4FF40F23F115320FBF7AFFF4FF41C519F
:104920006020FBF7AAFF01216120FBF7A6FF002111
:104930006A20FBF7A2FF00218020FBF79EFF0021E9
:104940008120FBF79AFF00218220FBF796FF0021D0
:104950008320FBF792FF00218420FBF78EFF0021CC
:104960008520FBF78AFF10219020FBF786FF4FF48C
:10497000C0619220FBF781FF40F233110720FBF763
:104980007CFF83E48948808845F2084188427DD1D4
:104990004FF480710120FBF770FF4FF4E0610220BB
:1049A000FBF76BFF41F230010320FBF766FF0021AC
:1049B0000420FBF762FF40F207210820FBF75DFFB0
:1049C00000210920FBF759FF00210A20FBF755FFC2
:1049D00000210C20FBF751FF00210D20FBF74DFFBC
:1049E00000210F20FBF749FF142002F0D4F941F217
:1049F000B0611020FBF741FF01211120FBF73DFFC3
:104A000001211720FBF739FF4FF49C711220FBF7AF
:104A100034FF4FF400611320FBF72FFF09212920F9
:104A2000FBF72BFF09212A20FBF727FF0021A420F9
:104A3000FBF723FF00215020FBF71FFFEF21512040
:104A4000FBF71BFF00215220FBF717FF40F23F113D
:104A50005320FBF712FF4FF41C516020FBF70DFFB2
:104A600001216120FBF709FF00216A20FBF705FF08
:104A700000218020FBF701FF00218120FBF7FDFED4
:104A800000218220FBF7F9FE002100E024E08320D2
:104A9000FBF7F3FE00218420FBF7EFFE00218520C9
:104AA000FBF7EBFE13219020FBF7E7FE002192209D
:104AB000FBF7E3FE03219320FBF7DFFE4FF4887141
:104AC0009520FBF7DAFE40F273110720FBF7D5FEC5
:104AD000322002F060F9B8E43448808841F2055190
:104AE00088427DD100210720FBF7C7FE322002F06B
:104AF00052F94FF48E711220FBF7BFFE0121A42062
:104B0000FBF7BBFE0F210820FBF7B7FE08210A20A8
:104B1000FBF7B3FE08210D20FBF7AFFE40F2077153
:104B20003020FBF7AAFE07213120FBF7A6FE40F25A
:104B300003613220FBF7A1FE4FF4E0613320FBF765
:104B40009CFE40F202213420FBF797FE0221352023
:104B5000FBF793FE41F60F713620FBF78EFE40F215
:104B600007713720FBF789FE00213820FBF785FE0F
:104B700000213920FBF781FE40F207713A20FBF754
:104B80007CFE00213B20FBF778FE07213C20FBF751
:104B900074FE00213D20FBF770FE322002F0FBF88E
:104BA00001210720FBF769FE012101E0F000002050
:104BB0001720FBF762FE322002F0EDF84FF4BD51F2
:104BC0001020FBF75AFE40F217211120FBF755FE8B
:104BD0004FF48F711220FBF750FE4FF4706100E02C
:104BE00098E01320FBF749FE00212A20FBF745FE41
:104BF0000A212920FBF741FE4FF49F711220FBF799
:104C00003CFE00215020FBF738FEEF215120FBF73E
:104C100034FE00215220FBF730FE40F23F115320BA
:104C2000FBF72BFE4FF41C516020FBF726FE012101
:104C30006120FBF722FE00216A20FBF71EFE002107
:104C40008020FBF71AFE00218120FBF716FE0021D1
:104C50008220FBF712FE00218320FBF70EFE0021CD
:104C60008420FBF70AFE00218520FBF706FE1321B6
:104C70009020FBF702FE4FF440719220FBF7FDFD00
:104C800005219320FBF7F9FD00219520FBF7F5FDA9
:104C900000219720FBF7F1FD00219820FBF7EDFDA7
:104CA0004FF480710120FBF7E8FD4FF4E061022032
:104CB000FBF7E3FD41F238010320FBF7DEFD0021A5
:104CC0000420FBF7DAFD00210C20FBF7D6FD0021C4
:104CD0000F20FBF7D2FD00212020FBF7CEFD0021A5
:104CE0002120FBF7CAFD21210720FBF7C6FD142078
:104CF00002F051F861210720FBF7BFFD142002F0FC
:104D00004AF840F273110720FBF7B7FD142002F0B8
:104D100042F895E4FE4880884BF2055188427CD1E8
:104D200000210846FBF7A9FD00210846FBF7A5FD79
:104D300000210846FBF7A1FD00210846FBF79DFD79
:104D40000121A420FBF799FD142002F024F84FF470
:104D50001C516020FBF791FD40F202210820FBF777
:104D60008CFD4FF405713020FBF787FD43F2157180
:104D70003120FBF782FD40F204613220FBF77DFD1C
:104D800040F616613320FBF778FD42F21121342002
:104D9000FBF773FD4FF4A8513520FBF76EFD48F289
:104DA00007513620FBF769FD41F207413720FBF739
:104DB00064FD41F203413820FBF75FFD20213920DB
:104DC000FBF75BFD1A219020FBF757FD0021102017
:104DD000FBF753FD07211120FBF74FFD00211220A7
:104DE000FBF74BFD00211320FBF747FD142001F0DA
:104DF000D2FF4FF4E6611020FBF73FFD40F2371180
:104E00001120FBF73AFD142001F0C5FF4FF4DC71CF
:104E10001220FBF732FD142000E085E001F0BBFF1B
:104E20004FF470611320FBF728FD80212A20FBF747
:104E300024FD48212920FBF720FD142001F0ABFFC1
:104E40004FF480710120FBF718FD4FF4E061022060
:104E5000FBF713FD41F238010320FBF70EFD40F292
:104E600002210820FBF709FD00210A20FBF705FDC0
:104E700000210C20FBF701FD00210D20FBF7FDFCBC
:104E800030210E20FBF7F9FC00215020FBF7F5FC48
:104E9000EF215120FBF7F1FC00215220FBF7EDFC44
:104EA00040F23F115320FBF7E8FC4FF41C51602007
:104EB000FBF7E3FC01216120FBF7DFFC00216A2006
:104EC000FBF7DBFC11219020FBF7D7FC4FF4C0610E
:104ED0009220FBF7D2FC40F202419320FBF7CDFC7D
:104EE00002219420FBF7C9FC142001F054FF01219A
:104EF0000720FBF7C2FC142001F04DFF61210720C1
:104F0000FBF7BBFC40F273110720FBF7B6FC002156
:104F10002020FBF7B2FC00212120FBF7AEFC222170
:104F20000020FBF7AAFC42E4794880884CF2055146
:104F300088427CD100210846FBF79FFC00210846EF
:104F4000FBF79BFC142001F026FF00210846FBF72D
:104F500094FC00210846FBF790FC00210846FBF773
:104F60008CFC00210846FBF788FC0121A420FBF7FC
:104F700084FC142001F00FFF4FF41C516020FBF75C
:104F80007CFC40F606010820FBF777FC40F2037139
:104F90003020FBF772FC01213120FBF76EFC04216D
:104FA0003220FBF76AFC4FF481713320FBF765FC7C
:104FB0004FF440713420FBF760FC40F203113520C0
:104FC000FBF75BFC1F213620FBF757FC40F2037117
:104FD0003720FBF752FC01213820FBF74EFC04215F
:104FE0003920FBF74AFC15219020FBF746FC4FF4D3
:104FF00082611020FBF741FC40F247211120FBF7B2
:105000003CFC4FF4DE711220FBF737FC4FF460617B
:105010001320FBF732FC782001F0BDFE4FF48071C5
:105020000120FBF72AFC4FF40071022000E052E05F
:10503000FBF723FC41F230010320FBF71EFC0821A3
:105040000A20FBF71AFC00210C20FBF716FC20219C
:105050000E20FBF712FC00210F20FBF70EFC0021B5
:105060002020FBF70AFC00212120FBF706FC3D2154
:105070002A20FBF702FC142001F08DFE2D212920AF
:10508000FBF7FBFB00215020FBF7F7FB4DF2EF0194
:105090005120FBF7F2FB00215220FBF7EEFB40F220
:1050A0003F115320FBF7E9FB00216120FBF7E5FBF3
:1050B00000216A20FBF7E1FB4FF440719220FBF7DF
:1050C000DCFB05219320FBF7D8FB4FF48071072010
:1050D000FBF7D3FB55E40E48808848F689118842D7
:1050E0007ED101210020FBF7C8FB4AF6A401032072
:1050F000FBF7C3FB00210C20FBF7BFFB40F60C01C4
:105100000D20FBF7BAFB4FF42C510E2002E00000FB
:10511000F0000020FBF7B1FBB0211E20FBF7ADFB38
:1051200042F63F310120FBF7A8FB4FF4C06102209B
:10513000FBF7A3FB00211020FBF79FFB46F2780151
:105140001120FBF79AFB00210520FBF796FB0021BD
:105150000620FBF792FB4EF61C711620FBF78DFB29
:1051600003211720FBF789FB40F233210720FBF7CF
:1051700084FB00210B20FBF780FB00210F20FBF7B5
:105180007CFB00214120FBF778FB00214220FBF74C
:1051900074FB00214820FBF770FB40F23F114920CF
:1051A000FBF76BFB00214A20FBF767FB00214B203C
:1051B000FBF763FB4FF46F414420FBF75EFB0021DC
:1051C0004520FBF75AFB40F23F114620FBF755FB09
:1051D00040F207713020FBF750FB4FF4017100E003
:1051E00040E03120FBF749FB4FF401713220FBF71F
:1051F00044FB40F202513320FBF73FFB40F20751E2
:105200003420FBF73AFB4FF401713520FBF735FBF7
:105210004FF401713620FBF730FB40F2025137208A
:10522000FBF72BFB40F202313A20FBF726FB40F262
:1052300002313B20FBF721FB00212320FBF71DFB64
:1052400000212420FBF719FB4FF400412520FBF738
:1052500014FB00214F20FBF710FB00214E20FBF731
:105260000CFBF0E3FE48808844F2315188427DD146
:1052700001210020FBF701FB0A2001F08CFD41F227
:1052800028611020FBF7F9FA0E211220FBF7F5FA3E
:1052900040F639211320FBF7F0FA0A2001F07BFDDC
:1052A00040211120FBF7E9FA50211520FBF7E5FA20
:1052B0000A2001F070FD1E211220FBF7DEFA0A2001
:1052C00001F069FD4FF4B1511020FBF7D6FA42F618
:1052D00039211320FBF7D1FA0A2001F05CFD4FF4CD
:1052E00080710120FBF7C9FA4FF440710220FBF7EF
:1052F000C4FA41F238010320FBF7BFFA40F2022161
:105300000820FBF7BAFA08210A20FBF7B6FA0021B9
:105310003020FBF7B2FA40F202413120FBF7ADFA40
:105320004FF483713220FBF7A8FA40F20351332087
:10533000FBF7A3FA4FF482713420FBF79EFA40F298
:1053400001313520FBF799FA40F207713620FBF75F
:1053500094FA40F205313720FBF78FFA4FF40271CF
:105360003820FBF78AFA40F60B7100E03CE0392068
:10537000FBF783FA02214120FBF77FFA4FF41C511F
:105380006020FBF77AFA01216120FBF776FA4FF4EF
:1053900004719020FBF771FA4FF485719220FBF7AE
:1053A0006CFA04219320FBF768FA4FF48071A02077
:1053B000FBF763FA01210720FBF75FFA21210720A1
:1053C000FBF75BFA23210720FBF757FA332107206D
:1053D000FBF753FA40F233110720FBF74EFA002196
:1053E000A020FBF74AFA2EE39D48808844F235510D
:1053F00088427CD130211520FBF73FFA10219A20FA
:10540000FBF73BFA20211120FBF737FA43F2284142
:105410001020FBF732FA02211220FBF72EFA41F29C
:1054200038011320FBF729FA282001F0B4FC1221DF
:105430000846FBF722FA282001F0ADFC43F2204198
:105440001020FBF71AFA43F238011320FBF715FA84
:10545000462001F0A0FC00213020FBF70EFA40F2BC
:1054600002413120FBF709FA40F207313220FBF705
:1054700004FA4FF441713320FBF7FFF90421342083
:10548000FBF7FBF940F201413520FBF7F6F940F25A
:1054900007713620FBF7F1F940F205313720FBF7B1
:1054A000ECF94FF4C2613820FBF7E7F94FF4C26121
:1054B0003920FBF7E2F94FF480710120FBF7DDF9A9
:1054C0004FF440710220FBF7D8F941F2300103207C
:1054D000FBF7D3F940F608010820FBF7CEF90821C5
:1054E0000A20FBF7CAF94FF41C51602000E033E0BA
:1054F000FBF7C3F901216120FBF7BFF94FF49F715E
:105500009020FBF7BAF94FF480719220FBF7B5F9C0
:105510004FF480719320FBF7B0F94FF44051A02075
:10552000FBF7ABF91021A320FBF7A7F90121072016
:10553000FBF7A3F921210720FBF79FF9232107207F
:10554000FBF79BF933210720FBF797F940F2331162
:105550000720FBF792F976E24148808841F6631113
:105560008842F8D1E220FBF73BF94FF480703D49C7
:105570000861400048611D203B490860802039498E
:10558000486108618000086140100861400048617E
:105590000220354908608020324948610861800056
:1055A0000861401008614000486104202E490860ED
:1055B00080202C494861086180000861642001F066
:1055C000C6FBE020FBF70CF94FF480702549086119
:1055D0004000486101202449086080202149486139
:1055E0000861800008610A2001F0D5FBE020FBF78C
:1055F000F7F84FF480701B490861400048610320B0
:1056000019490860802017494861086180000861D5
:105610000C2001F0C0FB0120FBF7E2F80A2001F0AA
:10562000BAFBE620FBF7DCF84FF480700D49086107
:10563000400048612F200C490860802009494861DA
:105640000861800008614010086140004861FF2047
:10565000054908608020034948610861800005E031
:10566000F0000020001001400C0C014008614010C7
:10567000086140004861FF20F84908608020F8492F
:105680004861086180000861B020FBF7A9F84FF479
:105690008070F3490861400048612020EF490860AC
:1056A0008020EF494861086180000861401008616E
:1056B000400048610020E94908608020E8494861CD
:1056C00008618000086140100861400048610320C3
:1056D000E24908608020E249486108618000086171
:1056E000401008614000486140F21F30DB4908600B
:1056F0008020DB4948610861800008614010086132
:10570000400048610120D54908608020D4494861A3
:10571000086180000861401008614000486140F263
:10572000DF10CE4908608020CD49486108618000C3
:10573000086140100861400048610020C7490860C6
:105740008020C7494861086180000861B420FBF7E8
:1057500047F84FF48070C249086140004861042056
:10576000BE4908608020BE49486108618000086128
:10577000401008614000486140F21F40B74908608E
:105780008020B749486108618000086140100861C5
:10579000400048610020B14908608020B04948615C
:1057A00008618000086140100861400048612E20B7
:1057B000AA4908608020AA49486108618000086100
:1057C00040100861400048610020A4490860802022
:1057D000A3494861086180000861401008614000E9
:1057E000486100209D49086080209D49486108610A
:1057F000800008614010086140004861002097491E
:105800000860802096494861086180000861401066
:10581000086140004861002090490860802090495C
:105820004861086180000861B620FAF7D9FF4FF49B
:1058300080708B49086140004861022087490860F8
:105840008020874948610861800008614010086134
:10585000400048614FF4037080490860802080490F
:10586000486108618000086140100861400048619B
:1058700000207A49086080207949486108618000E9
:1058800008614010086140004861172073490860B2
:1058900080207349486108618000086140100861F8
:1058A0004000486115206D49086080206C494861BE
:1058B00008618000086140100861400048610020D4
:1058C0006649086080206649486108618000086177
:1058D0004010086140004861002060490860802055
:1058E0005F494861086180000861F020FAF778FF9D
:1058F0004FF480705A4908614000486103205749BD
:1059000008608020564948610861800008612920AC
:10591000FAF766FFD020FAF763FF4FF48070504922
:1059200008614000486100204C49086080204C49D3
:105930004861086180000861BE20FAF751FF4FF40A
:10594000807047490861400048610520434908606C
:105950008020434948610861800008614010086167
:1059600040004861FE203D49086080203C49486174
:105970000861800008614010086140004861012012
:105980003649086080203649486108618000086116
:1059900040100861400048610020304908608020C4
:1059A0002F4948610861800008614010086140008B
:1059B0004861002029490860802029494861086120
:1059C00080000861401008614000486100202349C0
:1059D0000860802022494861086180000861B82081
:1059E000FAF7FEFE4FF480701D49086140004861DF
:1059F00003201A4908608020194948610861800025
:105A000008614010086140004861012013490860A6
:105A1000802013494861086180000861BA20FAF7C4
:105A2000DFFE4FF480700E4908614000486101209C
:105A30000A49086080200A494861086180000861BD
:105A40006420FBF78CFE0020FBF7F7FE01200549E0
:105A500008604FF6FF70FCF7E9F908BD0C0C014037
:105A600000100140A80122422DE9FC4F05460E46D8
:105A700017469846DDF82C9000200190F948808860
:105A800046F60401884229D1F6488079012825D1BB
:105A9000AB463546F3480088C01B401E86B24746D9
:105AA000F0480088A0EB0B00401E1FFA80F8002091
:105AB000EC4988712A2048812B20888143463A4648
:105AC00031462846CDF80090FFF7CEFF0120E5498A
:105AD00088712B2048812A20888127E0781B401C70
